:1000000045C000000AC1000043C100005CC0000000
:100010005AC0000078C1000056C0000054C0000063
:1000200052C0000050C000004EC000004CC0000094
:10003000B4C1000048C0000046C0000044C0000039
:1000400042C0000040C0000096C100003CC000005B
:100050003AC0000038C0000036C0000034C00000C4
:1000600032C0000030C000002EC000002CC00000D4
:100070002AC0000028C0000026C0000024C00000E4
:1000800022C0000020C000001EC0000011241FBEBE
:10009000CFEFD0E1DEBFCDBF11E0A0E0B1E0E4E4FE
:1000A000F9E000E00BBF02C007900D92A431B10748
:1000B000D9F721E0A4E1B1E001C01D92A434B20758
:1000C000E1F7EAD13DC49CCF9093900089B9599A49
:1000D000549A539AE5E9F0E080818F7B8083808198
:1000E000877F808380818F7D808380818F7E8083E6
:1000F00052988081846080838081826080830895AB
:100100005F9BFECF8CB108959093980080939900E7
:10011000EBE9F0E0808182608083AAE9B0E08C9115
:1001200080618C938C9188608C93EDE9F0E0808104
:100130008F7B80838081877F808380818F7D808398
:1001400080818F7E80838C918B7F8C938081846073
:100150008083808182608083089590919B0095FFC9
:10016000FCCF80939C00089521E030E080E090E097
:10017000F901E050FF4F4081840F911D2F5F3F4FE9
:1001800027303105A9F79195819591090895EF924E
:10019000FF920F931F93CF93DF938093030160939C
:1001A000050140930601E0DF909307018093080169
:1001B0008AE0E82E81E0F82EC0E0D0E08E01005009
:1001C0001F4FF8018081C9DFF70181917F01F8019C
:1001D00080832196CA30D10589F7DF91CF911F9195
:1001E0000F91FF90EF90089541E050E060E070E0E3
:1001F00089E0CDDF8FE19EE40197F1F700C00000B8
:100200004EE150E060E070E086E0C1DF8FE19EE407
:100210000197F1F700C0000008951F920F920FB6EA
:100220000F9211242F933F938F939F9380916A0095
:10023000833039F48CB59DB59093210180932001D2
:1002400018C08CB59DB590931F0180931E018091BD
:100250001E0190911F012091200130912101821BEC
:10026000930B909334018093330119BE81E0809306
:10027000150190916A0081E0892780936A009F911F
:100280008F913F912F910F900FBE0F901F90189557
:100290001F920F920FB60F9211242F933F938F93BB
:1002A0009F9380916A008C3039F48CB59DB5909302
:1002B00021018093200118C08CB59DB590931F013A
:1002C00080931E0180911E0190911F0120912001B9
:1002D00030912101821B930B90933601809335015D
:1002E00019BE81E08093160190916A0084E089270D
:1002F00080936A009F918F913F912F910F900FBE35
:100300000F901F9018951F920F920FB60F92112405
:100310002F933F938F939F938AB7833039F48CB593
:100320009DB5909321018093200118C08CB59DB597
:1003300090931F0180931E0180911E0190911F01D7
:100340002091200130912101821B930B90933C015D
:1003500080933B0119BE81E0809319019AB781E037
:1003600089278ABF9F918F913F912F910F900FBE48
:100370000F901F9018951F920F920FB60F92112495
:100380008F938CB18093320181E0809314018F911F
:100390000F900FBE0F901F9018951F920F920FB6DF
:1003A0000F9211248F9380911D01813009F190F0FB
:1003B000843061F58BB389618BBB8AE18A95F1F753
:1003C00000C0DC9810926A0083E08ABF8FEF88BF7C
:1003D00080E11BC0D89A8AE18A95F1F700C0D898CD
:1003E00083E080936A001ABE8FEF88BF81E00DC062
:1003F000D99A8AE18A95F1F700C0D9988CE0809368
:100400006A001ABE8FEF88BF82E089BF80911D010C
:100410008F5F80931D01853010F010921D018F9128
:100420000F900FBE0F901F901895C49AC29AC39850
:10043000C79AC098C19A44E050E060E070E082E161
:10044000A6CEC49AC298C39AC79AC09AC19844E0EB
:1004500050E060E070E082E19ACEC49AC298C39AFC
:10046000C79AC098C19A44E050E060E070E082E131
:100470008ECEC49AC29AC398C79AC09AC19844E0D3
:1004800050E060E070E082E182CEC498C298C398E8
:10049000C798C098C1980895579A12B88FEF8ABB31
:1004A0008CE08EBD80E397E09BBD8ABD80E187BF75
:1004B0008CE683BF8BE685BD87E690E005DE87E6A8
:1004C00090E022DE91DE41E050E060E070E082E109
:1004D0005EDE80E88FBF14DE80934301803309F035
:1004E000E2C0BBDF80911501882309F446C0109259
:1004F0001501609133017091340180E090E092D158
:1005000020E030E048EE5FE3F4D05BD1709323014C
:10051000609322018091220190912301069768F552
:10052000A8DF2FEF84E39CE0215080409040E1F76A
:1005300000C00000AADF2FEF80E792E0215080404A
:100540009040E1F700C0000042E050E060E070E061
:1005500082E11DDE2FEF83ED90E32150804090403B
:10056000E1F700C0000061DF2FEF84E39CE0215041
:1005700080409040E1F700C0000080911601882380
:1005800009F446C010921601609135017091360150
:1005900080E090E047D120E030E048EE5FE3A9D072
:1005A00010D17093250160932401809124019091D2
:1005B0002501069768F55DDF2FEF84E39CE021506D
:1005C00080409040E1F700C000005FDF2FEF80E740
:1005D00092E0215080409040E1F700C0000042E0EE
:1005E00050E060E070E082E1D2DD2FEF83ED90E338
:1005F000215080409040E1F700C0000016DF2FEF4F
:1006000084E39CE0215080409040E1F700C000006E
:1006100080911901882309F446C010921901609154
:100620003B0170913C0180E090E0FCD020E030E0A4
:1006300048EE5FE35ED0C5D070932B0160932A0132
:1006400080912A0190912B01069768F512DF2FEF18
:1006500084E39CE0215080409040E1F700C000001E
:1006600014DF2FEF80E792E0215080409040E1F7C7
:1006700000C0000042E050E060E070E082E187DD11
:100680002FEF83ED90E3215080409040E1F700C0D0
:100690000000D7DE2FEF84E39CE0215080409040A3
:1006A000E1F700C0000080914301883309F4D5DEF2
:1006B00080914301823309F4DCDE8091430184336D
:1006C00009F4BFDE80914301863309F4AEDE8091E8
:1006D0004301853339F4D9DE43E050E060E070E057
:1006E00082E155DD80914301873309F0F4CECDDE00
:1006F000F2CE0CD0EBC0E3D040F0DAD030F021F4F1
:100700005F3F19F0CCC0511115C1CFC0F0D098F3A4
:100710009923C9F35523B1F3951B550BBB27AA2782
:1007200062177307840738F09F5F5F4F220F331FF4
:10073000441FAA1FA9F333D00E2E3AF0E0E830D0C0
:1007400091505040E695001CCAF729D0FE2F27D0C3
:10075000660F771F881FBB1F261737074807AB0791
:10076000B0E809F0BB0B802DBF01FF2793585F4F06
:100770002AF09E3F510568F092C0DCC05F3FECF369
:10078000983EDCF3869577956795B795F7959F5FCB
:10079000C9F7880F911D9695879597F90895E1E01F
:1007A000660F771F881FBB1F621773078407BA077E
:1007B00020F0621B730B840BBA0BEE1F88F7E095D9
:1007C000089504D06894B111B5C0089598D088F008
:1007D0009F5790F0B92F9927B751A0F0D1F0660F2D
:1007E000771F881F991F1AF0BA95C9F712C0B13048
:1007F00081F09FD0B1E008959CC0672F782F8827A3
:10080000B85F39F0B93FCCF3869577956795B39586
:10081000D9F73EF490958095709561957F4F8F4FF5
:100820009F4F0895E89409C097FB3EF490958095FA
:10083000709561957F4F8F4F9F4F9923A9F0F92FA6
:1008400096E9BB279395F695879577956795B79524
:10085000F111F8CFFAF4BB0F11F460FF1BC06F5F0A
:100860007F4F8F4F9F4F16C0882311F096E911C01C
:10087000772321F09EE8872F762F05C0662371F03D
:1008800096E8862F70E060E02AF09A95660F771F51
:10089000881FDAF7880F9695879597F9089597F945
:1008A0009F6780E870E060E008959FEF80EC089516
:1008B00000240A941616170618060906089500243F
:1008C0000A9412161306140605060895092E0394B9
:1008D000000C11F4882352F0BB0F40F4BF2B11F42D
:1008E00060FF04C06F5F7F4F8F4F9F4F089557FD8C
:1008F0009058440F551F59F05F3F71F04795880F8E
:1009000097FB991F61F09F3F79F087950895121624
:1009100013061406551FF2CF4695F1DF08C01616D0
:1009200017061806991FF1CF869571056105089481
:100930000895E894BB2766277727CB0197F9089598
:04094000F894FFCF59
:100944007EFF06000000000000EF7EFF06000000AE
:04095400000000EFB0
:040000050080012056
:00000001FF
