:1000000045C0000011C1000052C100005CC00000EA
:100010005AC000008FC1000056C0000054C000004C
:1000200052C0000050C000004EC000004CC0000094
:10003000CBC1000048C0000046C0000044C0000022
:1000400042C0000040C00000ADC100003CC0000044
:100050003AC0000038C0000036C0000034C00000C4
:1000600032C0000030C000002EC000002CC00000D4
:100070002AC0000028C0000026C0000024C00000E4
:1000800022C0000020C000001EC0000011241FBEBE
:10009000CFEFD0E1DEBFCDBF11E0A0E0B1E0ECEBEF
:1000A000F9E000E00BBF02C007900D92A431B10748
:1000B000D9F721E0A4E1B1E001C01D92A434B20758
:1000C000E1F708D279C49CCF9093900089B9599AEE
:1000D000549A539AE5E9F0E080818F7B8083808198
:1000E000877F808380818F7D808380818F7E8083E6
:1000F00052988081846080838081826080830895AB
:100100005F9BFECF8CB108959093980080939900E7
:10011000EBE9F0E0808182608083AAE9B0E08C9115
:1001200080618C938C9188608C93EDE9F0E0808104
:100130008F7B80838081877F808380818F7D808398
:1001400080818F7E80838C918B7F8C938081846073
:1001500080838081826080830895EBE9F0E0908164
:1001600095FFFDCF80939C00089521E030E080E072
:1001700090E0F901E050FF4F4081840F911D2F5F07
:100180003F4F27303105A9F7919581959109089541
:10019000CF92DF92EF92FF920F931F93CF93DF9353
:1001A000809303016093050140930601DEDF909385
:1001B000070180930801CAE0D1E06E010F2EF4E13F
:1001C000EF2EF1E0FF2EF02D8E010C191D090050CD
:1001D0001F4FF8018081C1DF8991F8018083CE151E
:1001E000DF0591F7DF91CF911F910F91FF90EF9075
:1001F000DF90CF90089541E050E060E070E089E04A
:10020000C7DF8FE19EE40197F1F700C000004EE1E7
:1002100050E060E070E086E0BBDF8FE19EE4019794
:10022000F1F700C0000008951F920F920FB60F92D1
:1002300011240BB60F922F933F938F939F93EF93BD
:10024000FF9380916A00833039F48CB59DB590930B
:1002500021018093200118C08CB59DB590931F019A
:1002600080931E0180911E0190911F012091200119
:1002700030912101821B930B9093340180933301C1
:1002800019BE81E080931501EAE6F0E0908181E0FB
:1002900089278083FF91EF919F918F913F912F91BB
:1002A0000F900BBE0F900FBE0F901F9018951F92CE
:1002B0000F920FB60F9211240BB60F922F933F930C
:1002C0008F939F93EF93FF9380916A008C3039F462
:1002D0008CB59DB5909321018093200118C08CB5F9
:1002E0009DB590931F0180931E0180911E019091F6
:1002F0001F012091200130912101821B930B9093CB
:1003000036018093350119BE81E080931601EAE63B
:10031000F0E0908184E089278083FF91EF919F91A5
:100320008F913F912F910F900BBE0F900FBE0F90AA
:100330001F9018951F920F920FB60F9211242F93B2
:100340003F938F939F938AB7833039F48CB59DB5D3
:10035000909321018093200118C08CB59DB5909396
:100360001F0180931E0180911E0190911F01209119
:10037000200130912101821B930B90933C018093CB
:100380003B0119BE81E0809319019AB781E089276A
:100390008ABF9F918F913F912F910F900FBE0F9029
:1003A0001F9018951F920F920FB60F9211248F93E2
:1003B0008CB18093320181E0809314018F910F9072
:1003C0000FBE0F901F9018951F920F920FB60F92AD
:1003D00011248F9380911D01813099F018F08430A1
:1003E000F9F02EC0D89A8AE18A95F1F700C0D89822
:1003F00083E080936A001ABE8FEF88BF81E089BFD7
:100400001FC0D99A8AE18A95F1F700C0D9988CE08B
:1004100080936A001ABE8FEF88BF82E089BF10C048
:100420008BB389618BBB8AE18A95F1F700C0DC98B8
:1004300010926A0083E08ABF8FEF88BF80E189BF96
:1004400080911D018F5F80931D01853010F0109207
:100450001D018F910F900FBE0F901F901895C49A99
:10046000C29AC398C79AC098C19A44E050E060E02D
:1004700070E082E18DCE0895C49AC298C39AC79A5B
:10048000C09AC19844E050E060E070E082E180CE24
:100490000895C49AC298C39AC79AC098C19A44E072
:1004A00050E060E070E082E173CE0895C49AC29A91
:1004B000C398C79AC09AC19844E050E060E070E0E9
:1004C00082E166CE0895C498C298C398C798C09830
:1004D000C1980895579A12B88FEF8ABB8CE08EBDF1
:1004E00080E397E09BBD8ABD80E187BF8CE683BF38
:1004F0008BE685BD87E690E0E7DD87E690E004DEE9
:100500007ADE41E050E060E070E082E141DE80E8C8
:100510008FBF0F2EF5E1CF2EF1E0DF2EF02D0F2E45
:10052000F6E1EF2EF1E0FF2EF02D09E111E00F2EA4
:10053000FBE34F2EF1E05F2EF02D0F2EFAE28F2E0F
:10054000F1E09F2EF02D0F2EF5E32F2EF1E03F2E40
:10055000F02D0F2EF4E26F2EF1E07F2EF02D0F2EF6
:10056000F3E3AF2EF1E0BF2EF02DC2E2D1E0C8DD03
:1005700080934301803309F0D2C08BDFF601808184
:10058000882309F440C01082F5016081718180E008
:1005900090E084D120E030E048EE5FE3E6D04DD13A
:1005A0007983688388819981069768F57FDFFFEFFB
:1005B00024E38CE0F15020408040E1F700C00000CF
:1005C00082DF9FEFE0E7F2E09150E040F040E1F79A
:1005D00000C0000042E050E060E070E082E1D8DD61
:1005E0002FEF83ED90E3215080409040E1F700C071
:1005F000000035DFEFEFF4E32CE0E150F040204065
:10060000E1F700C00000F7018081882309F441C0B0
:100610001082F1016081718180E090E03FD120E0A3
:1006200030E048EE5FE3A1D008D1F301718360832D
:1006300080819181069768F539DFFFEF24E38CE034
:10064000F15020408040E1F700C000003CDF9FEF08
:10065000E0E7F2E09150E040F040E1F700C0000038
:1006600042E050E060E070E082E192DD2FEF83ED48
:1006700090E3215080409040E1F700C00000EFDEA1
:10068000EFEFF4E32CE0E150F0402040E1F700C050
:100690000000F8018081882309F441C01082F20132
:1006A0006081718180E090E0F9D020E030E048EE98
:1006B0005FE35BD0C2D0F40171836083808191815C
:1006C000069768F5F3DEFFEF24E38CE0F15020405D
:1006D0008040E1F700C00000F6DE9FEFE0E7F2E0C7
:1006E0009150E040F040E1F700C0000042E050E0EF
:1006F00060E070E082E14CDD2FEF83ED90E321506C
:1007000080409040E1F700C00000B6DEEFEFF4E378
:100710002CE0E150F0402040E1F700C00000809163
:100720004301883309F4B5DE80914301823309F433
:10073000BDDE80914301843309F49EDE8091430144
:10074000863309F48CDE80914301853339F4BBDEB6
:1007500043E050E060E070E082E11ADD8091430107
:10076000873309F004CFAFDEFACE0CD0EBC0E3D074
:1007700040F0DAD030F021F45F3F19F0CCC05111D5
:1007800015C1CFC0F0D098F39923C9F35523B1F325
:10079000951B550BBB27AA2762177307840738F0F0
:1007A0009F5F5F4F220F331F441FAA1FA9F333D04F
:1007B0000E2E3AF0E0E830D091505040E695001C03
:1007C000CAF729D0FE2F27D0660F771F881FBB1FBF
:1007D000261737074807AB07B0E809F0BB0B802D99
:1007E000BF01FF2793585F4F2AF09E3F510568F0E5
:1007F00092C0DCC05F3FECF3983EDCF386957795C2
:100800006795B795F7959F5FC9F7880F911D9695E6
:10081000879597F90895E1E0660F771F881FBB1F42
:10082000621773078407BA0720F0621B730B840BEF
:10083000BA0BEE1F88F7E095089504D06894B111C3
:10084000B5C0089598D088F09F5790F0B92F992798
:10085000B751A0F0D1F0660F771F881F991F1AF0CB
:10086000BA95C9F712C0B13081F09FD0B1E00895B8
:100870009CC0672F782F8827B85F39F0B93FCCF339
:10088000869577956795B395D9F73EF490958095C1
:10089000709561957F4F8F4F9F4F0895E89409C0E1
:1008A00097FB3EF490958095709561957F4F8F4FA3
:1008B0009F4F9923A9F0F92F96E9BB279395F695B9
:1008C000879577956795B795F111F8CFFAF4BB0F37
:1008D00011F460FF1BC06F5F7F4F8F4F9F4F16C09B
:1008E000882311F096E911C0772321F09EE8872F25
:1008F000762F05C0662371F096E8862F70E060E0E1
:100900002AF09A95660F771F881FDAF7880F969559
:10091000879597F9089597F99F6780E870E060E000
:1009200008959FEF80EC089500240A941616170688
:1009300018060906089500240A94121613061406D0
:1009400005060895092E0394000C11F4882352F033
:10095000BB0F40F4BF2B11F460FF04C06F5F7F4FEB
:100960008F4F9F4F089557FD9058440F551F59F0D2
:100970005F3F71F04795880F97FB991F61F09F3F8C
:1009800079F087950895121613061406551FF2CFB5
:100990004695F1DF08C0161617061806991FF1CF05
:1009A00086957105610508940895E894BB2766272C
:0C09B0007727CB0197F90895F894FFCF4A
:1009BC007EFF06000000000000EF7EFF0600000036
:0409CC00000000EF38
:040000050080012056
:00000001FF
