S0150000436F6E74726F6C6C20706172742E73726563EB
S113000066C0000082C0000080C000007EC0000006
S11300107CC000007AC0000078C0000076C00000F8
S113002074C0000072C0000070C000006EC0000008
S11300306CC000006AC0000068C0000066C0000018
S1130040C7C0000062C0000060C000005EC00000C5
S11300505CC000005AC0000058C0000056C0000038
S113006054C0000052C0000050C000004EC0000048
S11300704CC000004AC0000048C0000046C0000058
S113008044C0000042C0000040C000003204AA0482
S11300900105EF040105010501050A05F804F8044A
S11300A0084AD73B3BCE016E84BCBFFDC12F3D6CDB
S11300B074319ABD56833DDA3D00C77F11BED9E441
S11300C0BB4C3E916BAAAABE000000803F001124E5
S11300D01FBECFEFD0E1DEBFCDBF11E0A0E0B1E0A5
S11300E0E6EDF5E100E00BBF02C007900D92AA35E2
S11300F0B107D9F721E0AAE5B1E001C01D92A03D06
S1130100B207E1F792D40C94E90A7ACF80EF84BB6A
S11301101ABA15BA1BBA08951ABA84EF91E0AD98C9
S1130120AE9AAF9A2AE12A95F1F700C029B3AF98A5
S113013022231CF40197009791F78FEF8ABB08954F
S1130140CF93C82FE9DFAD98AE98AF9ACBBB8AE1C5
S11301508A95F1F700C0AF98CF91089588E3F0DF56
S11301608FE097E20197F1F700C0000088E3E8DF31
S11301708FEC97E00197F1F700C0000088E3E0DF1F
S113018088E3DEDF8FE0DCDF81E0DADF86E0D8CFF2
S11301900895CF93C82FC0DFAD9AAE98AF9ACBBB6A
S11301A08AE18A95F1F700C0AF98CF910895CF9373
S11301B0DF93EC018881882329F02196EADF899175
S11301C08111FCCFDF91CF91089581E0B9CF0895DB
S11301D01F920F920FB60F9211240BB60F922F930A
S11301E03F934F935F936F937F938F939F93AF93BB
S11301F0BF93EF93FF9360915A0170915B018091DB
S11302005C0190915D012FE632E143E05BE344D76A
S113021060935A0170935B0180935C0190935D013C
S113022082EC82BFFF91EF91BF91AF919F918F912B
S11302307F916F915F914F913F912F910F900BBEE2
S11302400F900FBE0F901F90189594EA909374002E
S1130250E4E7F0E090819923ECF7E1E7F0E09081A6
S1130260987F9830E1F792E09A95F1F700C090ED0D
S11302709093730094E890937400E4E7F0E0908125
S11302809923ECF7E1E7F0E09081987F9831E1F76A
S11302908093730084E880937400E4E7F0E0808145
S11302A08823ECF7E1E7F0E08081887F8832E1F78A
S11302B06093730084E880937400E4E7F0E0808145
S11302C08823ECF7E1E7F0E08081887F8832E1F76A
S11302D084E980937400089594EA90937400E4E7A9
S11302E0F0E090819923ECF7E1E7F0E09081987FCA
S11302F09830E1F790ED9093730094E89093740034
S1130300E4E7F0E090819923ECF7E1E7F0E09081F5
S1130310987F9831E1F78093730084E880937400A8
S1130320E4E7F0E080818823ECF7E1E7F0E0808106
S1130330887F8832E1F784EA80937400E4E7F0E090
S113034080818823ECF7E1E7F0E08081887F8031C9
S1130350E1F781ED8093730084E880937400E4E70F
S1130360F0E080818823ECF7E1E7F0E08081887F8A
S11303708034E1F784E880937400E4E7F0E080815E
S11303808823ECF7E1E7F0E08081887F8835E1F7A6
S11303908091730094E99093740008958BE39CDF3B
S11303A0809397018AE18A95F1F700C08CE394DF8A
S11303B08093BD018AE18A95F1F700C08DE38CDF5B
S11303C08093CF018AE18A95F1F700C08EE384DF40
S11303D080936B018AE18A95F1F700C08FE37CDF9B
S11303E0809374018AE18A95F1F700C080E474DF98
S11303F0809386018AE18A95F1F700C083E46CDF7B
S11304008093A8018AE18A95F1F700C084E464DF4F
S11304108093CE018AE18A95F1F700C085E45CDF20
S113042080936A018AE18A95F1F700C086E454DF7B
S1130430809395018AE18A95F1F700C087E44CDF47
S1130440809385018AE18A95F1F700C088E444DF4E
S1130450809396018AE18A95F1F700C00895CF92BE
S1130460DF92EF92FF92CF93DF93CAE0D0E096DF62
S1130470209197018091BD0190E0922B9093880187
S1130480809387016091870170918801C090790100
S1130490D0907A01E0907B01F0907C017195619598
S11304A07109882777FD8095982FF0D6A7019601CA
S11304B0F3D56093790170937A0180937B019093D3
S11304C07C012091CF0180916B0190E0922B90935D
S11304D08801809387016091870170918801C090A1
S11304E05E01D0905F01E0906001F0906101719530
S11304F061957109882777FD8095982FC7D6A70144
S11305009601CAD560935E0170935F018093600188
S113051090936101209174018091860190E0922B67
S1130520909388018093870160918701709188017D
S1130530C0908D01D0908E01E0908F01F0909001D9
S1130540882777FD8095982FA1D6A7019601A4D579
S113055060938D0170938E0180938F01909390012D
S11305602091A8018091CE0190E0922B9093880174
S1130570809387016091870170918801C090660122
S1130580D0906701E0906801F0906901882777FDB9
S11305908095982F7BD6A70196017ED5609366013E
S11305A070936701809368019093690120916A01B7
S11305B08091950190E0922B90938801809387011C
S11305C06091870170918801C090C601D090C701E5
S11305D0E090C801F090C901882777FD8095982F95
S11305E055D6A701960158D56093C6017093C701EB
S11305F08093C8019093C90120918501809196014F
S113060090E0922B909388018093870160918701F9
S113061070918801C0908901D0908A01E0908B018B
S1130620F0908C01882777FD8095982F2FD6A7010D
S1130630960132D56093890170938A0180938B016E
S113064090938C018FE19EE40197F1F700C00000C4
S11306502197209709F00BCF6091790170917A016D
S113066080917B0190917C0120E030E040E251E4F4
S1130670A3D56093790170937A0180937B01909361
S11306807C0160915E0170915F01809160019091A5
S1130690610120E030E040E251E48ED560935E01D8
S11306A070935F01809360019093610160918D016B
S11306B070918E0180918F019091900120E030E043
S11306C040E251E479D560938D0170938E0180935B
S11306D08F01909390016091660170916701809100
S11306E068019091690120E030E040E251E464D572
S11306F06093660170936701809368019093690128
S11307006091C6017091C7018091C8019091C9019F
S113071020E030E040E251E44FD56093C60170938D
S1130720C7018093C8019093C901609189017091B8
S11307308A0180918B0190918C0120E030E040E2AD
S113074051E43AD56093890170938A0180938B01B7
S113075090938C018091790190917A01A0917B0111
S1130760B0917C018093810190938201A0938301D5
S1130770B093840180915E0190915F01A09160012A
S1130780B091610180936C0190936D01A0936E010F
S1130790B0936F0180918D0190918E01A0918F0192
S11307A0B09190018093BE019093BF01A093C001CA
S11307B0B093C1018091660190916701A091680195
S11307C0B091690180937D0190937E01A0937F0194
S11307D0B09380018091C6019091C701A091C80196
S11307E0B091C9018093620190936301A093640165
S11307F0B09365018091890190918A01A0918B0148
S1130800B0918C018093910190939201A0939301F4
S1130810B0939401DF91CF91FF90EF90DF90CF9050
S113082008955D9BFECF8CB9089580E487B987E86D
S113083086B9089581E487B987E886B90895369A18
S1130840349BFECF84B125B190E0922B0895CF93D1
S1130850DF9301978A30910508F0DCC08A5B9F4FD3
S1130860FC01B1C681E86CDC80E091E0A0DC8FEC97
S113087097E00197F1F700C000006091B101709119
S1130880B2018091B3019091B40120E030E040EADC
S113089051EC8ED4181644F088E3C3DF96DC87EC61
S11308A04FDC8EE091E083DC6091B1017091B20184
S11308B08091B3019091B40120E030E040EA51E42A
S11308C0BAD5882344F082E3ACDF7FDC86EC38DCE5
S11308D081E191E06CDC6091AD017091AE01809199
S11308E0AF019091B00120E030E040EA51EC60D4D7
S11308F0181644F084E395DF68DC86EC21DC86E19D
S113090091E055DC6091AD017091AE018091AF0131
S11309109091B00120E030E040EA51E48CD5882386
S113092044F086E37EDF51DC86EC0ADC8BE191E067
S11309303EDC1092B1011092B2011092B3011092F8
S1130940B4011092AD011092AE011092AF01109259
S1130950B00168C081E8F4DB81E291E028DCEFECCF
S1130960F7E03197F1F700C000005FDF68DFEC01CA
S11309708630910540F482E354DF27DC86ECE0DB2B
S113098081E191E014DCC83ED34040F088E349DFC4
S11309901CDC87ECD5DB8EE091E009DC8FE19EE482
S11309A00197F1F700C0000045DF49DFEC01863014
S11309B0910540F484E335DF08DC86ECC1DB86E195
S11309C091E0F5DBC83ED34008F42CC086E329DF70
S11309D0FCDB86ECB5DB8BE191E0E9DB23C080E353
S11309E020DFF3DB81E8ACDB80E391E0E0DB1AC0DD
S11309F0ECDB86E8A5DB8FE391E0D9DB87E311DF4D
S1130A0011C085E30EDFE1DB84E89ADB84E491E046
S1130A10CEDB08C085E305DFD8DB82E891DB8EE41A
S1130A2091E0C5DBDF91CF91089517BA1BB888E137
S1130A308AB986E0809395001092900093E399B967
S1130A4094E09093740092E09093700083BF82ECE2
S1130A5082BF81E087BF60E08BE6F7DB8FE19EE435
S1130A600197F1F700C0000065E08AE1EEDBF7DCF6
S1130A704DDB74DB8CE064DB80E88FBF8FDC80911E
S1130A80B1019091B201A091B301B091B4018093EE
S1130A90750190937601A0937701B09378018091CA
S1130AA0AD019091AE01A091AF01B091B0018093DE
S1130AB0B9019093BA01A093BB01B093BC0180919A
S1130AC0A9019091AA01A091AB01B091AC018093CE
S1130AD09C0190939D01A0939E01B0939F0120914E
S1130AE097018091BD0190E0922B909388018093AF
S1130AF087016091870170918801719561957109F1
S1130B00882777FD8095982FC1D3609379017093DE
S1130B107A0180937B0190937C012091CF01809195
S1130B206B0190E0922B90938801809387016091F0
S1130B30870170918801719561957109882777FD06
S1130B408095982FA3D360935E0170935F01809387
S1130B50600190936101209174018091860190E07D
S1130B60922B909388018093870160918701709103
S1130B708801882777FD8095982F88D360938D010D
S1130B8070938E0180938F01909390012091A8011E
S1130B908091CE0190E0922B9093880180938701FD
S1130BA06091870170918801882777FD8095982F3F
S1130BB06DD360936601709367018093680190938D
S1130BC0690120916A018091950190E0922B9093A4
S1130BD0880180938701609187017091880188273B
S1130BE077FD8095982F52D36093C6017093C70107
S1130BF08093C8019093C901209185018091960149
S1130C0090E0922B909388018093870160918701F3
S1130C1070918801882777FD8095982F37D360934A
S1130C20890170938A0180938B0190938C01609168
S1130C30660170916701809168019091690120912A
S1130C407D0130917E0140917F015091800123D23A
S1130C5023E333E343E851E4AFD260936601709336
S1130C60670180936801909369016091C601709156
S1130C70C7018091C8019091C9012091620130910E
S1130C806301409164015091650105D223E333E38C
S1130C9043E851E491D26093C6017093C7018093F5
S1130CA0C8019093C9016091890170918A01809172
S1130CB08B0190918C01209191013091920140918E
S1130CC0930150919401E7D123E333E343E851E4E2
S1130CD073D26093890170938A0180938B019093FE
S1130CE08C016091790170917A0180917B019091DE
S1130CF07C012091810130918201409183015091C6
S1130D008401C9D16093790170937A0180937B0146
S1130D1090937C016091790170917A0180917B01BB
S1130D2090917C0120916C0130916D0140916E0194
S1130D3050916F01B0D160935E0170935F01809315
S1130D406001909361016091790170917A018091C1
S1130D507B0190917C012091BE013091BF014091B3
S1130D60C0015091C10197D160938D0170938E01A0
S1130D7080938F019093900180905E0190905F0129
S1130D80A0906001B09061016091790170917A0145
S1130D9080917B0190917C01C0908D01D0908E0157
S1130DA0E0908F01F09090019B01AC014FD32B0197
S1130DB03C01A7019601C701B60148D39B01AC01D0
S1130DC0C301B20169D1A9D39B01AC01C501B4012E
S1130DD09058F2D1C5D120E030E044E353E436D357
S1130DE028ED3FE049E450E4E7D16093C2017093F9
S1130DF0C3018093C4019093C501809079019090C0
S1130E007A01A0907B01B0907C0160915E017091A9
S1130E105F018091600190916101C0908D01D0903B
S1130E208E01E0908F01F09090019B01AC010ED3F4
S1130E302B013C01A7019601C701B60107D39B0111
S1130E40AC01C301B20128D168D39B01AC01C50137
S1130E50B401B2D185D120E030E044E353E4F6D2CA
S1130E6028ED3FE049E450E4A7D16093A0017093DA
S1130E70A1018093A2019093A301609166017091F6
S1130E806701809168019091690120915A01309124
S1130E905B0140915C0150915D01C0907501D0905F
S1130EA07601E0907701F0907801D0D2A701960105
S1130EB0F3D06093B5017093B6018093B70190931A
S1130EC0B8016091C6017091C7018091C8019091E9
S1130ED0C90120915A0130915B0140915C0150910C
S1130EE05D01C090B901D090BA01E090BB01F090CF
S1130EF0BC01ACD2A7019601CFD060939801709346
S1130F00990180939A0190939B016091890170915A
S1130F108A0180918B0190918C0120915A0130912A
S1130F205B0140915C0150915D01C0909C01D090A7
S1130F309D01E0909E01F0909F0188D2A701960147
S1130F40ABD06093700170937101809372019093A0
S1130F50730110925A0110925B0110925C0110927D
S1130F605D0188E491EEAAE7BFE38093CA01909300
S1130F70CB01A093CC01B093CD016091CA017091D3
S1130F80CB018091CC019091CD012091B50130919C
S1130F90B6014091B7015091B8014090CA015090F8
S1130FA0CB016090CC017090CD018090C2019090F3
S1130FB0C301A090C401B090C50148D26B017C016B
S1130FC0A301920160E070E080E89FE364D0A50192
S1130FD094013CD29B01AC01C701B6015DD0609382
S1130FE0B1017093B2018093B3019093B401609105
S1130FF0CA017091CB018091CC019091CD012091D7
S113100098013091990140919A0150919B0140902F
S1131010CA015090CB016090CC017090CD018090BA
S1131020A0019090A101A090A201B090A3010ED2C2
S11310306B017C01A301920160E070E080E89FE312
S11310402AD0A501940102D29B01AC01C701B601CB
S113105023D06093AD017093AE018093AF01909360
S1131060B0018091700190917101A0917201B091D1
S113107073018093A9019093AA01A093AB01B0934B
S1131080AC0186B390E0E3DBAFE1BEE41197F1F786
S113109000C00000F3CC5058BB27AA270ED091C142
S11310A082D130F087D120F031F49F3F11F41EF447
S11310B052C10EF4E095E7FB48C1E92F93D180F3C8
S11310C0BA17620773078407950718F071F49EF541
S11310D0ABC10EF4E0950B2EBA2FA02D0B01B90174
S11310E090010C01CA01A0011124FF27591B99F09A
S11310F0593F50F4503E68F11A16F040A22F232FA6
S1131100342F4427585FF3CF469537952795A795F5
S1131110F0405395C9F77EF41F16BA0B620B730B9C
S1131120840BBAF09150A1F0FF0FBB1F661F771F0D
S1131130881FC2F70EC0BA0F621F731F841F48F4C2
S1131140879577956795B795F7959E3F08F0B3CF48
S11311509395880F08F09927EE0F97958795089532
S1131160DF93DD27B92FBF7740E85FE31616170634
S113117048075B0710F4D92F62D19F938F937F9315
S11311806F9309D2E0EAF0E0E9D01BD12F913F91AF
S11311904F915F9167D1DD2349F09058A2EA2AED7F
S11311A03FE049EC5FE3D0785D2787DFDF9109C139
S11311B0A8D008F481E008950CD003C1FBD040F01E
S11311C0F2D030F021F45F3F19F0BFC051112DC1AE
S11311D0C2C008D198F39923C9F35523B1F3951BE1
S11311E0550BBB27AA2762177307840738F09F5F44
S11311F05F4F220F331F441FAA1FA9F333D00E2EB3
S11312003AF0E0E830D091505040E695001CCAF71F
S113121029D0FE2F27D0660F771F881FBB1F2617E4
S113122037074807AB07B0E809F0BB0B802DBF01B7
S1131230FF2793585F4F2AF09E3F510568F085C001
S1131240F4C05F3FECF3983EDCF3869577956795A1
S1131250B795F7959F5FC9F7880F911D9695879568
S113126097F90895E1E0660F771F881FBB1F621787
S113127073078407BA0720F0621B730B840BBA0B45
S1131280EE1F88F7E0950895E89409C097FB3EF4B3
S113129090958095709561957F4F8F4F9F4F9923BF
S11312A0A9F0F92F96E9BB279395F695879577953D
S11312B06795B795F111F8CFFAF4BB0F11F460FFFD
S11312C01BC06F5F7F4F8F4F9F4F16C0882311F055
S11312D096E911C0772321F09EE8872F762F05C069
S11312E0662371F096E8862F70E060E02AF09A9504
S11312F0660F771F881FDAF7880F9695879597F9F9
S11313000895990F0008550FAA0BE0E8FEEF161692
S11313101706E807F907C0F012161306E407F507E5
S113132098F0621B730B840B950B39F40A2661F059
S1131330232B242B252B21F408950A2609F4A140FC
S1131340A6958FEF811D811D089597F99F6780E809
S113135070E060E008959FEF80EC0895DF93CF93F1
S11313601F930F93FF92EF92DF927B018C0168949D
S113137005C0DA2EEF0176D0FE01E894A5912591FF
S1131380359145915591AEF3EF0197DEFE0197013A
S1131390A801DA9479F7DF90EF90FF900F911F91F5
S11313A0CF91DF91089500240A94161617061806A3
S11313B00906089500240A94121613061406050655
S11313C00895092E0394000C11F4882352F0BB0FE6
S11313D040F4BF2B11F460FF04C06F5F7F4F8F4F49
S11313E09F4F089557FD9058440F551F59F05F3F84
S11313F071F04795880F97FB991F61F09F3F79F033
S113140087950895121613061406551FF2CF4695B4
S1131410F1DF08C0161617061806991FF1CF869536
S11314207105610508940895E894BB27662777271A
S1131430CB0197F9089565DF08F48FEF08959B01B8
S1131440AC0160E070E080E89FE3B6CE0BD0B9CF8A
S1131450AADF28F0AFDF18F0952309F076CF7BCF11
S11314601124E3CFBFDFA0F3959FD1F3950F50E094
S1131470551F629FF001729FBB27F00DB11D639F42
S1131480AA27F00DB11DAA1F649F6627B00DA11DE8
S1131490661F829F2227B00DA11D621F739FB00D8E
S11314A0A11D621F839FA00D611D221F749F3327FE
S11314B0A00D611D231F849F600D211D822F762F97
S11314C06A2F11249F5750408AF0E1F088234AF094
S11314D0EE0FFF1FBB1F661F771F881F91505040E0
S11314E0A9F79E3F510570F030CF9FCF5F3FECF3DB
S11314F0983EDCF3869577956795B795F795E795CC
S11315009F5FC1F7FE2B880F911D9695879597F9DC
S1131510089511F40EF41FCF41C06CDFD0F399236A
S1131520D9F3CEF39F57550B87FF46D00024A0E68E
S113153040EA900180585695979528F4805C660F90
S1131540771F881F20F026173707480730F4621BDF
S1131550730B840B202931294A2BA69517940794E1
S1131560202531254A2758F7660F771F881F20F05A
S113157026173707480730F4620B730B840B200DD2
S1131580311D411DA09581F7B901842F9158880F11
S11315909695879508959B01AC0158CF9F3F31F0F4
S11315A0915020F4879577956795B795880F911D8D
S11315B09695879597F9089591505040660F771F37
S11315C0881FD2F70895EE0FFF1F0590F491E02DC8
S10915D00994F894FFCF1A
S11315D64D50553630353020535441525400474F00
S11315E6004261636B004C454654005249474854D7
S11315F6004A4F59535449434B20535441525400C3
S11316064155544F4D4F4445205354415254005371
S1131616544F5000444F4E542050555348004348AD
S10D16264F494345204D4F44450051
S9030000FC
